:100000000C94F1000C940E010C940E010C940E0152
:100010000C940E010C940E010C940E010C940E0124
:100020000C940E010C940E010C942E050C94680592
:100030000C940E010C940E010C940E010C940E0104
:100040000C940E010C940E010C940E010C940E01F4
:100050000C940E010C940E010C940E010C940E01E4
:100060000C940E010C940E010C940E010C940E01D4
:100070000C940E010C940E010C940E010C940E01C4
:100080000C940E010C940E010C940E010C940E01B4
:100090000C940E010C940E010C940E010C940E01A4
:1000A0000C940E010C940E010C940E01CF04CC04A0
:1000B000C904C604C304C004BD04BA04B704B4042C
:1000C000B104AE04AB04A804A504A2049F049C04DC
:1000D00099049604930490048D048A04870484048C
:1000E00081047E047B047804750472046F046C043C
:1000F00069046604630460045D045A0457045404EC
:1001000051044E044B044804450442043F043C049B
:1001100039043604330430042D042A04270424044B
:1001200021041E041B041804150412040F0400010A
:10013000000062011200020000740143000300008D
:10014000B7010401030904BB011202030904CF0132
:100150000603030904D701080001C112018036011A
:1001600081361201000202000010C0167A0400015C
:100170000102030109024300020100C03209040028
:100180000001020201000524001001052401010103
:10019000042402060524060001070582031000401E
:1001A00009040100020A00000007050302400000E4
:1001B000070584024000000403090412034A002ECC
:1001C0000020004600690065006E00650000000622
:1001D000034D0032000000080334003100300000FD
:1001E000000011241FBECFEFDAE0DEBFCDBF11E06B
:1001F000A0E0B1E0E8E9F1E102C005900D92A8307D
:10020000B107D9F711E0A8E0B1E001C01D92AE300E
:10021000B107E1F70E9477020C94CA080C94000021
:1002200081309105C1F420917E00226020937E00F0
:1002300020917A00206220937A0020917C00216036
:1002400020937C0020917C002D7F20937C002091C6
:100250007C002B7F1AC084309105F9F420917E0038
:10026000206120937E0020917A00206220937A0002
:1002700020917C00246020937C0020917C002D7FC5
:1002800020937C0020917C002E7F20937C00209185
:100290007B002F7D20937B0066C085309105F9F4AB
:1002A00020917E00206220937E0020917A002062BF
:1002B00020937A0020917C00246020937C00209180
:1002C0007C002D7F20937C0020917C002160209376
:1002D0007C0020917B002F7D20937B0066C08630C0
:1002E0009105F9F420917E00206420937E002091F6
:1002F0007A00206220937A0020917C002E7F209348
:100300007C0020917C00226020937C0020917C0066
:10031000246020937C0020917B002F7D20937B0024
:1003200075C087309105F9F420917E0020682093F4
:100330007E0020917A00206220937A0020917C0038
:10034000216020937C0020917C00226020937C001F
:1003500020917C00246020937C0020917B002F7DE5
:1003600020937B0064C088309105F9F420917D00D2
:10037000216020937D0020917A00206220937A00F2
:1003800020917C002E7F20937C0020917C002D7F8B
:1003900020937C0020917C002B7F20937C00209177
:1003A0007B00206220937B0064C08930910599F422
:1003B00080917D00826080937D0080917A008062D0
:1003C00080937A0080917C00816080937C00809192
:1003D0007C008D7F15C08A309105C1F480917D002D
:1003E000846080937D0080917A00806280937A009F
:1003F00080917C008E7F80937C0080917C00826065
:1004000080937C0080917C008B7F2BC08B3091058A
:1004100071F480917D00886080937D0080917A00E6
:10042000806280937A0080917C008160E4CF8C3080
:100430009105F9F480917D00806180937D00809129
:100440007A00806280937A0080917C008E7F809316
:100450007C0080917C008D7F80937C0080917C006B
:10046000846080937C0080917B00806280937B001D
:1004700008958D309105F1F480917D008062809324
:100480007D0080917A00806280937A0080917C0068
:10049000816080937C0080917C008D7F80937C00C4
:1004A00080917C00846080937C0080917B008062DE
:1004B00080937B00089580917A00806880937A0011
:1004C00080917A00806480937A0080917A0084FF22
:1004D000FCCF80917A00806180937A0080917800CF
:1004E0009091790090930901809308010895CF932A
:1004F000DF930E940603279A809181008160809398
:1005000081008091810084608093810080918000CF
:100510008160809380008091810088608093810059
:100520008091800088608093800080917C0080644E
:1005300080937C0080E8809361001092610080913C
:100540007A00816080937A0080917A008260809343
:100550007A0080917A00846080937A003E9A80913C
:1005600091008160809391008091910084608093DC
:100570009100809190008160809390008091910023
:1005800088608093910080919000806880939000B3
:10059000C6E5DDEF8BE090E00E9410010E945B0257
:1005A0002091080130910901C90155E0880F991F78
:1005B0005A95E1F7820F931FBE010E94E107685D23
:1005C0007F4F70939900609398008CE090E00E94B8
:1005D00010010E945B022091080130910901C901BC
:1005E00045E0880F991F4A95E1F7820F931FBE01DE
:1005F0000E94E107685D7F4F70938D0060938C00CF
:10060000C9CF8091E80080FFFCCF089581E08093FE
:10061000D70080EA8093D80082E189BD09B400FE4A
:10062000FDCF80E98093D8001092E00010920A017B
:1006300010920B018CE08093E200789408958091F1
:100640000A0108959FB7F89480910A01882339F030
:1006500083E08093E9008091E80085FD03C09FBF9F
:100660008FEF08958091F1002091E80025FD03C0EF
:100670002BE62093E8009FBF08959FB7F8948091E0
:100680000A01882331F083E08093E9008091F20031
:1006900001C080E09FBF089580910A01882371F016
:1006A0008FB7F89493E09093E9009BE602C0909393
:1006B000E8002091E80025FDFACF8FBF08959091C2
:1006C0000A019923D1F19FB7F89424E02093E9001F
:1006D00020910D01222341F02091E80025FD02C068
:1006E0009FBF2BC010920D012091E400275E34E0E3
:1006F0004091E80045FD12C09FBF9091E400921721
:1007000021F481E080930D0118C090910A01992392
:10071000B1F09FB7F8943093E900EACF8093F100ED
:100720008091E80085FD03C08AE38093E80085E0BE
:1007300080930C019FBF80E008958FEF08958FEFA5
:10074000089590910A019923D9F09FB7F89424E075
:100750002093E9002091E80025FD03C09FBF8FEFA3
:1007600008958093F1008091E80085FD03C08AE33D
:100770008093E80085E080930C019FBF80E008959E
:100780008FEF0895CF93DC0180910A01882309F44B
:100790001AC12FB7F89484E08093E90080910D018D
:1007A000882309F405C18091E80085FD02C02FBFB0
:1007B0000AC110920D01FCC08091E400875E909107
:1007C000E80095FD13C02FBF9091E400981721F425
:1007D00081E080930D01F7C090910A01992309F4FB
:1007E000F2C02FB7F894C093E900E9CF8091F200EE
:1007F000E52FE81B8E2F90E06817790708F4E62FA5
:100800006E1B7109F0E0E134F10508F0C5C0EA5A49
:10081000FF4FEE0FFF1F0590F491E02D09948D918D
:100820008093F1008D918093F1008D918093F10080
:100830008D918093F1008D918093F1008D91809343
:10084000F1008D918093F1008D918093F1008D9155
:100850008093F1008D918093F1008D918093F10050
:100860008D918093F1008D918093F1008D91809313
:10087000F1008D918093F1008D918093F1008D9125
:100880008093F1008D918093F1008D918093F10020
:100890008D918093F1008D918093F1008D918093E3
:1008A000F1008D918093F1008D918093F1008D91F5
:1008B0008093F1008D918093F1008D918093F100F0
:1008C0008D918093F1008D918093F1008D918093B3
:1008D000F1008D918093F1008D918093F1008D91C5
:1008E0008093F1008D918093F1008D918093F100C0
:1008F0008D918093F1008D918093F1008D91809383
:10090000F1008D918093F1008D918093F1008D9194
:100910008093F1008D918093F1008D918093F1008F
:100920008D918093F1008D918093F1008D91809352
:10093000F1008D918093F1008D918093F1008D9164
:100940008093F1008D918093F1008D918093F1005F
:100950008D918093F1008D918093F1008D91809322
:10096000F1008D918093F1008D918093F1008D9134
:100970008093F1008D918093F1008D918093F1002F
:100980008D918093F1008D918093F1008D918093F2
:10099000F1008D918093F1008D918093F100809111
:1009A000E80085FD02C04093E80030930C0104C0CC
:1009B000C4E050E44AE335E06115710509F0FCCE6E
:1009C0002FBF80E001C08FEFCF9108958FB7F894CB
:1009D00090910C01992341F094E09093E9009AE3FF
:1009E0009093E80010920C018FBF0895809104014C
:1009F00008958091050108958091060108958091E0
:100A00000B0108959FB7F89420910A01222339F031
:100A100022E02093E9003091E80035FD03C09FBF3C
:100A20008FEF089531EA3093F10030E23093F10016
:100A30001092F1001092F1001092F1001092F1006A
:100A40002093F1001092F1008093F1001092F100D8
:100A50008AE38093E8009FBF80E008951F920F9281
:100A60000FB60F9211248F939F938091E100109203
:100A7000E10083FF11C01092E90091E09093EB0038
:100A80001092EC0092E19093ED0098E09093F000CA
:100A900010920A0110920B0182FF13C080910A018B
:100AA000882379F080910C01882359F0815080933C
:100AB0000C01882331F484E08093E9008AE3809379
:100AC000E8009F918F910F900FBE0F901F90189587
:100AD0001F920F920FB60F921124EF92FF920F9375
:100AE0001F932F933F934F935F936F937F938F93B6
:100AF0009F93AF93BF93EF93FF93DF93CF930F92A7
:100B0000CDB7DEB71092E9008091E80083FF2DC1D8
:100B10002091F1003091F100E090F100FF2440912C
:100B2000F100942F80E0E82AF92A0091F10010E00A
:100B30004091F100942F80E0082B192B6091F10077
:100B4000A091F10082EF8093E800363009F059C09F
:100B500085E391E09C0125503040FC013797459199
:100B600054914E155F05F9F4F901459154914017E0
:100B70005107C9F42E5F3F4FF901859194912E5F83
:100B80003F4FF9012491462F50E07A2F60E0462B29
:100B9000572B4F3F510519F010F04FEF50E042171F
:100BA00050F4242F08C00796295F3F4FF1E08F359E
:100BB0009F0799F6DAC0AEEF4091E80050E0BA0125
:100BC0006570707061157105B9F342FDD1C0322FA7
:100BD000213108F030E1AC01632F07C0FA014F5F0B
:100BE0005F4FE491E093F10061506623B9F7830F02
:100BF000911D231BA093E8002223F1F63031E1F28E
:100C0000B7C0353051F48EEF8093E8000E940103A5
:100C10008E2D80688093E300ABC0393051F52223DC
:100C200009F0A3C0E0920A0110920B0110920C018E
:100C30008EEF8093E80041E088E591E04093E90081
:100C4000FC010196E491E093EB00EE2369F09C0136
:100C50002F5F3F4FFC0184918093EC00C901019606
:100C6000F90124912093ED004F5F453039F78EE173
:100C700077C0383051F4203809F077C00E94010362
:100C800080910A018093F10048C0313279F4213A11
:100C900009F06BC00E940103E0E0F1E081918093D4
:100CA000F10041E0E730F407C9F737C03032A1F472
:100CB000213209F05AC08091E80082FFFCCFE0E0C9
:100CC000F1E08091F100819381E0E730F807C9F706
:100CD0008BEF8093E80021C0323241F4213209F0D9
:100CE00044C0E0920B010E94010317C03323C9F4F2
:100CF00029830E9401032981223851F40093E900DD
:100D00009091EB0081E095FF80E01092E90001C036
:100D100080E08093F1001092F1008EEF8093E80064
:100D200027C0313011F0333001F52230F1F4E114F5
:100D3000F104D9F40F77802F81508430B0F48EEF16
:100D40008093E8000093E900333079F089E18093E3
:100D5000EB0081E090E002C0880F991F0A95E2F74E
:100D60008093EA001092EA0003C081E28093EB00D6
:100D70000F90CF91DF91FF91EF91BF91AF919F9134
:100D80008F917F916F915F914F913F912F911F9123
:100D90000F91FF90EF900F900FBE0F901F9018953E
:100DA0001F93CF93DF93EC01FE0121961491112341
:100DB00049F01A3019F48DE00E945F03812F0E94E0
:100DC0005F03F2CFDF91CF911F9108958A3010F425
:100DD00090E301C097E3890F0E945F030895CF93CA
:100DE000C82F82958F700E94E6068C2F8F700E940C
:100DF000E606CF910895CF93C82F892F0E94EF0662
:100E00008C2F0E94EF06CF9108950E94EF0608955F
:100E1000EF92FF920F931F93DF93CF93CDB7DEB77F
:100E200027970FB6F894DEBF0FBECDBF8E010F5FC0
:100E30001F4F27E0F80111922A95E9F7B8014AE01F
:100E400050E00E94080888E0E82EF12CEC0EFD1E10
:100E5000F80181918F01882311F00E945F030E1524
:100E60001F05B1F727960FB6F894DEBF0FBECDBFB2
:100E7000CF91DF911F910F91FF90EF900895EF9226
:100E8000FF920F931F93DF93CF9300D000D000D039
:100E9000CDB7DEB78E010F5F1F4F26E0F80111922C
:100EA0002A95E9F7B8014AE050E00E94820896E0EE
:100EB000E92EF12CEC0EFD1EF80181918F018823A3
:100EC00011F00E945F030E151F05B1F726960FB6AD
:100ED000F894DEBF0FBECDBFCF91DF911F910F9170
:100EE000FF90EF900895EF92FF920F931F93DF937F
:100EF000CF93CDB7DEB72B970FB6F894DEBF0FBEFA
:100F0000CDBF8E010F5F1F4F2BE0F80111922A9584
:100F1000E9F7A8012AE030E00E9429082CE0E22E3F
:100F2000F12CEC0EFD1EF80181918F01882311F048
:100F30000E945F030E151F05B1F72B960FB6F894AC
:100F4000DEBF0FBECDBFCF91DF911F910F91FF90FC
:100F5000EF900895EF92FF920F931F93DF93CF933B
:100F6000CDB7DEB72B970FB6F894DEBF0FBECDBF5F
:100F70008E010F5F1F4F2BE0F80111922A95E9F7C0
:100F8000A8012AE030E00E945D083BE0E32EF12C4E
:100F9000EC0EFD1EF80181918F01882311F00E9453
:100FA0005F030E151F05B1F72B960FB6F894DEBF41
:100FB0000FBECDBFCF91DF911F910F91FF90EF90AA
:100FC000089597FB092E07260AD077FD04D00CD090
:100FD00006D000201AF4709561957F4F0895F6F7BA
:100FE000909581959F4F0895AA1BBB1B51E107C0A7
:100FF000AA1FBB1FA617B70710F0A61BB70B881FA9
:10100000991F5A95A9F780959095BC01CD01089537
:10101000FB019F01E8944230C4F04532B4F44A30F9
:1010200029F497FB1EF4909581959F4F642F7727A5
:101030000E94F407805D8A330CF0895D8193CB01B7
:101040000097A1F716F45DE251931082C9010C9448
:101050009808FA01CF93FF93EF93223044F12532A1
:1010600034F5C22FE894CA3049F497FB3EF49095CA
:101070008095709561957F4F8F4F9F4F2C2F332711
:1010800044275527FF93EF930E94A808EF91FF9103
:10109000605D6A330CF0695D6193B901CA0160500B
:1010A00070408040904051F716F4CDE2C193108219
:1010B0008F919F91CF910C949808FA01CF93FF9351
:1010C000EF932230CCF02532BCF4C22F2C2F3327E3
:1010D00044275527FF93EF930E94A808EF91FF91B3
:1010E000605D6A330CF0695D6193B901CA016050BB
:1010F00070408040904051F710828F919F91CF9126
:101100000C949808FB019F01423074F0453264F45E
:10111000642F77270E94F407805D8A330CF0895D85
:101120008193CB010097A1F71082C9010C94980814
:10113000DC01FC01672F71917723E1F7329704C03E
:101140007C916D9370836291AE17BF07C8F30895C9
:10115000A1E21A2EAA1BBB1BFD010DC0AA1FBB1FBB
:10116000EE1FFF1FA217B307E407F50720F0A21B2D
:10117000B30BE40BF50B661F771F881F991F1A949A
:1011800069F760957095809590959B01AC01BD01C4
:08119000CF010895F894FFCF90
:0811980000E100000000080066
:00000001FF
