:100000000C94F6000C9413010C9413010C9413013E
:100010000C9413010C9413010C9413010C94130110
:100020000C9413010C9413010C9447050C94820555
:100030000C9413010C9413010C9413010C941301F0
:100040000C9413010C9413010C9413010C941301E0
:100050000C9413010C9413010C9413010C941301D0
:100060000C9413010C9413010C9413010C941301C0
:100070000C9413010C9413010C9413010C941301B0
:100080000C9413010C9413010C9413010C941301A0
:100090000C9413010C9413010C9413010C94130190
:1000A0000C9413010C9413010C941301E404E10467
:1000B000DE04DB04D804D504D204CF04CC04C90484
:1000C000C604C304C004BD04BA04B704B404B10434
:1000D000AE04AB04A804A504A2049F049C049904E4
:1000E0009604930490048D048A0487048404810494
:1000F0007E047B047804750472046F046C04690444
:100100006604630460045D045A04570454045104F3
:100110004E044B044804450442043F043C043904A3
:100120003604330430042D042A04270424046D56B5
:10013000003D000A41444300000100006C01120030
:100140000200007E014300030000C1010401030915
:1001500004C5011202030904D9010603030904E1DD
:1001600001080001C112018036018136120100022E
:1001700002000010C0167A04000101020301090206
:100180004300020100C03209040000010202010024
:1001900005240010010524010101042402060524A0
:1001A0000600010705820310004009040100020A4D
:1001B000000000070503024000000705840240001C
:1001C000000403090412034A002E002000460069BF
:1001D0000065006E006500000006034D003200005F
:1001E00000080334003100300000000011241FBE5D
:1001F000CFEFDAE0DEBFCDBF11E0A0E0B1E0E0E29A
:10020000F4E102C005900D92AC30B107D9F711E0CE
:10021000ACE0B1E001C01D92A431B107E1F70E944A
:10022000BD020C940E0A0C9400009C0181309105D3
:10023000F9F480917E00826080937E0080917A0044
:10024000806280937A0080917C00816080937C0042
:1002500080917C008D7F80937C0080917C008B7FDF
:1002600080937C0080917B008F7D80937B0066C0B3
:1002700084309105F9F480917E00806180937E0046
:1002800080917A00806280937A0080917C00846003
:1002900080937C0080917C008D7F80937C00809196
:1002A0007C008E7F80937C0080917B008F7D80938B
:1002B0007B0066C085309105F9F480917E008062F4
:1002C00080937E0080917A00806280937A00809192
:1002D0007C00846080937C0080917C008D7F809383
:1002E0007C0080917C00816080937C0080917B0009
:1002F0008F7D80937B0066C086309105F9F48091F4
:100300007E00806480937E0080917A00806280937A
:100310007A0080917C008E7F80937C0080917C00AD
:10032000826080937C0080917C00846080937C005C
:1003300080917B008F7D80937B0066C027303105E4
:10034000F9F480917E00806880937E0080917A002D
:10035000806280937A0080917C00816080937C0031
:1003600080917C00826080937C0080917C0084601E
:1003700080937C0080917B008F7D80937B0055C0B3
:1003800028303105F9F480917D00816080937D00F3
:1003900080917A00806280937A0080917C008E7FC9
:1003A00080937C0080917C008D7F80937C00809185
:1003B0007C008B7F80937C0080917B0080628093A7
:1003C0007B004EC029303105F9F480917D008260B8
:1003D00080937D0080917A00806280937A00809182
:1003E0007C00816080937C0080917C008D7F809375
:1003F0007C0080917C008B7F80937C0080917B00CF
:10040000806280937B004EC02A30310571F4809168
:100410007D00846080937D0080917A00806280936B
:100420007A0080917C008E7F10C02B303105C1F4A2
:1004300080917D00886080937D0080917A00806249
:1004400080937A0080917C00816080937C00809111
:100450007C00826080937C0080917C008B7F1AC03E
:100460002C303105F9F480917D00806180937D000E
:1004700080917A00806280937A0080917C008E7FE8
:1004800080937C0080917C008D7F80937C008091A4
:100490007C00846080937C0080917B0080628093EC
:1004A0007B0008952D303105F1F480917D0080624C
:1004B00080937D0080917A00806280937A008091A1
:1004C0007C00816080937C0080917C008D7F809394
:1004D0007C0080917C00846080937C0080917B0014
:1004E000806280937B00089580917A008068809379
:1004F0007A0080917A00806480937A0080917A00FB
:1005000084FF3AC080917A00806180937A0083E30F
:1005100091E00E94ED0680911201909113010E94DA
:10052000960781E391E00E94ED06209178003091DA
:100530007900B901660F771F660F771F620F731F6F
:1005400080E090E00E9497082FE632E143E85FE305
:100550000E9403080E946B08DC01CB010E949607F1
:10056000809178009091790090930D0180930C0117
:100570008EE291E00E94ED0608950E941C03809196
:100580007C00806480937C0080E8809361001092FE
:10059000610080917A00816080937A0080917A0076
:1005A000826080937A0080917A00846080937A00E0
:1005B0003E9A80919100816080939100809191009A
:1005C000846080939100809190008160809390007E
:1005D0008091910088608093910080919000806864
:1005E00080939000809100019091010190931301FC
:1005F0008093120180911201909113010E941501C4
:100600000E94740220910C0130910D01C90145E056
:10061000880F991F4A95E1F7820F931F60E074E0FD
:100620000E942509709561957F4F685D7F4F70939B
:10063000990060939800DECF81E08093D70080EA34
:100640008093D80082E189BD09B400FEFDCF80E926
:100650008093D8001092E00010920E0110920F01CA
:100660008CE08093E2007894089580910E010895C3
:100670009FB7F89480910E01882339F083E080932E
:10068000E9008091E80085FD03C09FBF8FEF0895CA
:100690002091F1008091E80085FD03C08BE68093F6
:1006A000E8009FBF822F08959FB7F89480910E01B4
:1006B000882329F083E08093E9008091F2009FBFB6
:1006C000089580910E01882371F09FB7F89483E01C
:1006D0008093E9002BE602C02093E8008091E800B7
:1006E00085FDFACF9FBF0895482F80910E01882382
:1006F000D9F12FB7F89484E08093E900809111013B
:10070000882341F08091E80085FD02C02FBF12C010
:10071000109211019091E400975E34E08091E8001E
:1007200085FD13C02FBF8091E400891729F481E073
:10073000809311018FEF089580910E018823A1F01D
:100740002FB7F8943093E900E9CF4093F1008091FE
:10075000E80085FD03C08AE38093E80085E080938C
:1007600010012FBF80E008958FEF0895282F80910A
:100770000E01882351F09FB7F89484E08093E9003C
:100780008091E80085FD03C09FBF8FEF08952093FF
:10079000F1008091E80085FD03C08AE38093E800C2
:1007A00085E0809310019FBF80E00895CF93DF9391
:1007B000EC0180910E01882309F41CC13FB7F89425
:1007C00084E08093E90080911101882309F407C136
:1007D0008091E80085FD02C03FBF0CC1109211015D
:1007E000FEC09091E400975E8091E80085FD13C003
:1007F0003FBF8091E400891721F481E080931101CB
:10080000F9C080910E01882309F4F4C03FB7F89431
:100810005093E900E9CF8091F2002A2F281B822F04
:1008200090E06817790708F4262F822F90E0813432
:10083000910508F0C6C08A5A9F4FFC01EE0FFF1FBA
:100840000590F491E02D099489918093F1008991AC
:100850008093F10089918093F10089918093F10058
:1008600089918093F10089918093F100899180931F
:10087000F10089918093F10089918093F100899131
:100880008093F10089918093F10089918093F10028
:1008900089918093F10089918093F10089918093EF
:1008A000F10089918093F10089918093F100899101
:1008B0008093F10089918093F10089918093F100F8
:1008C00089918093F10089918093F10089918093BF
:1008D000F10089918093F10089918093F1008991D1
:1008E0008093F10089918093F10089918093F100C8
:1008F00089918093F10089918093F100899180938F
:10090000F10089918093F10089918093F1008991A0
:100910008093F10089918093F10089918093F10097
:1009200089918093F10089918093F100899180935E
:10093000F10089918093F10089918093F100899170
:100940008093F10089918093F10089918093F10067
:1009500089918093F10089918093F100899180932E
:10096000F10089918093F10089918093F100899140
:100970008093F10089918093F10089918093F10037
:1009800089918093F10089918093F10089918093FE
:10099000F10089918093F10089918093F100899110
:1009A0008093F10089918093F10089918093F10007
:1009B00089918093F10089918093F10089918093CE
:1009C000F10089918093F1008091E80085FD02C0DB
:1009D000B093E800621B71094093100104C054E019
:1009E000A0E4BAE345E06115710509F0FACE3FBF16
:1009F00080E001C08FEFDF91CF9108959FB7F89409
:100A000080911001882341F084E08093E9008AE31B
:100A10008093E800109210019FBF08958091080113
:100A2000089580910901089580910A0108958091A7
:100A30000F010895382F9FB7F89480910E018823F5
:100A400039F022E02093E9008091E80085FD03C0A1
:100A50009FBF8FEF089581EA8093F10080E2809339
:100A6000F1001092F1001092F1001092F10010923A
:100A7000F1002093F1001092F1003093F1001092F8
:100A8000F1008AE38093E8009FBF80E008951F9201
:100A90000F920FB60F9211248F939F938091E100D4
:100AA0001092E100982F83FF11C01092E90081E0BD
:100AB0008093EB001092EC0082E18093ED0088E0DF
:100AC0008093F00010920E0110920F0192FF13C05C
:100AD00080910E01882379F080911001882359F0CC
:100AE000815080931001882331F484E08093E900E1
:100AF0008AE38093E8009F918F910F900FBE0F9033
:100B00001F9018951F920F920FB60F9211240F93FA
:100B10001F932F933F934F935F936F937F938F9385
:100B20009F93AF93BF93EF93FF931092E90080914F
:100B3000E80083FF3CC14091F1003091F1008091C9
:100B4000F100682F70E02091F100922F80E0682B77
:100B5000792B8091F100A82FB0E02091F100922F25
:100B600080E0A82BB92B1091F1000091F10082EFE9
:100B70008093E800363009F05AC02FE331E0A90134
:100B800045505040F9013797859194918617970702
:100B900001F5FA01859194918A179B07D1F49A0186
:100BA0002E5F3F4FF901659174912E5F3F4FF90120
:100BB0004491212F30E0902F80E0282B392B2F3FBC
:100BC000310519F010F02FEF30E0241758F4422FC0
:100BD00009C0295F3F4F495F5F4FF1E029363F076A
:100BE00089F6E5C05EEF8091E800282F30E0C9016A
:100BF00085709070892BB9F322FDDCC0342F413110
:100C000008F030E1232FCB0106C0FC010196E491EE
:100C1000E093F10021502223C1F7630F711D431BA4
:100C20005093E8004423F9F63031E9F2C3C035307F
:100C300061F48EEF8093E8008091E80080FFFCCFA4
:100C4000862F80688093E300B5C0393051F5442386
:100C500009F0ADC060930E0110920F0110921001C7
:100C60008EEF8093E80082E691E021E02093E90096
:100C7000FC010196E491E093EB00EE2369F0AC01F6
:100C80004F5F5F4FFC0184918093EC00CA01019695
:100C9000FA0134913093ED002F5F253039F78EE162
:100CA00081C0383061F4403809F081C08091E8009B
:100CB00080FFFCCF80910E018093F10050C0313253
:100CC00089F4413A09F073C08091E80080FFFCCFBD
:100CD000E4E0F1E081918093F10081E0EB30F807EE
:100CE000C9F73DC03032A1F4413209F060C08091B3
:100CF000E80082FFFCCFE4E0F1E08091F100819315
:100D000081E0EB30F807C9F78BEF8093E80027C04C
:100D1000323251F4413209F04AC060930F018091A0
:100D2000E80080FFFCCF1BC03323E9F48091E8008A
:100D300080FFFCCF423811F080E00DC0A093E900A5
:100D40008091EB0090E025E0969587952A95E1F754
:100D500081701092E9008093F1001092F1008EEF03
:100D60008093E80027C0313011F0333001F5423074
:100D7000F1F4672BE1F42A2F2F77822F81508430F2
:100D8000B0F48EEF8093E8002093E900333079F0DF
:100D900089E18093EB0081E090E002C0880F991F09
:100DA0002A95E2F78093EA001092EA0003C081E2FC
:100DB0008093EB00FF91EF91BF91AF919F918F9145
:100DC0007F916F915F914F913F912F911F910F9163
:100DD0000F900FBE0F901F9018951F93CF93DF9326
:100DE000EC01FE0121961491112349F01A3019F4F7
:100DF0008DE00E947403812F0E947403F2CFDF9173
:100E0000CF911F910895982F8A3010F087E301C089
:100E100080E3890F0E94740308951F93182F829511
:100E20008F700E940307812F8F700E9403071F910C
:100E300008951F93182F892F0E940D07812F0E945C
:100E40000D071F9108950E940D070895EF92FF92DC
:100E50000F931F93DF93CF93CDB7DEB72B970FB6CA
:100E6000F894DEBF0FBECDBF8E010F5F1F4F2BE08A
:100E7000F80111922A95E9F7A8012AE030E00E94D2
:100E8000A1093BE0E32EF12CEC0EFD1EF801808160
:100E9000882311F00E9474030F5F1F4F0E151F056A
:100EA000A9F72B960FB6F894DEBF0FBECDBFCF913A
:100EB000DF911F910F91FF90EF900895EF92FF92B5
:100EC0000F931F93DF93CF93CDB7DEB72B970FB65A
:100ED000F894DEBF0FBECDBF8E010F5F1F4F2BE01A
:100EE000F80111922A95E9F7A8012AE030E00E9462
:100EF0006D094CE0E42EF12CEC0EFD1EF801808112
:100F0000882311F00E9474030F5F1F4F0E151F05F9
:100F1000A9F72B960FB6F894DEBF0FBECDBFCF91C9
:100F2000DF911F910F91FF90EF900895EF92FF9244
:100F30000F931F93DF93CF9300D000D000D0CDB795
:100F4000DEB78E010F5F1F4F26E0F80111922A9540
:100F5000E9F7B8014AE050E00E94C60956E0E52EE4
:100F6000F12CEC0EFD1EF8018081882311F00E9407
:100F700074030F5F1F4F0E151F05A9F726960FB6B6
:100F8000F894DEBF0FBECDBFCF91DF911F910F91BF
:100F9000FF90EF900895EF92FF920F931F93DF93CE
:100FA000CF93CDB7DEB727970FB6F894DEBF0FBE4D
:100FB000CDBF8E010F5F1F4F27E0F80111922A95D8
:100FC000E9F7B8014AE050E00E944C0968E0E62EDB
:100FD000F12CEC0EFD1EF8018081882311F00E9497
:100FE00074030F5F1F4F0E151F05A9F727960FB645
:100FF000F894DEBF0FBECDBFCF91DF911F910F914F
:10100000FF90EF9008950CD0E6C0DED040F0D5D030
:1010100030F021F45F3F19F0C7C0511110C1CAC0B0
:10102000EBD098F39923C9F35523B1F3951B550BD6
:10103000BB27AA2762177307840738F09F5F5F4FAB
:10104000220F331F441FAA1FA9F333D00E2E3AF0EC
:10105000E0E830D091505040E695001CCAF729D006
:10106000FE2F27D0660F771F881FBB1F2617370755
:101070004807AB07B0E809F0BB0B802DBF01FF2785
:1010800093585F4F2AF09E3F510568F08DC0D7C03E
:101090005F3FECF3983EDCF3869577956795B795BF
:1010A000F7959F5FC9F7880F911D9695879597F9DA
:1010B0000895E1E0660F771F881FBB1F6217730753
:1010C0008407BA0720F0621B730B840BBA0BEE1F68
:1010D00088F7E095089598D088F09F5790F0B92F41
:1010E0009927B751A0F0D1F0660F771F881F991F7D
:1010F0001AF0BA95C9F712C0B13081F09FD0B1E0B3
:1011000008959CC0672F782F8827B85F39F0B93FC2
:10111000CCF3869577956795B395D9F73EF490957E
:101120008095709561957F4F8F4F9F4F0895E894FC
:1011300009C097FB3EF490958095709561957F4F1F
:101140008F4F9F4F9923A9F0F92F96E9BB279395CD
:10115000F695879577956795B795F111F8CFFAF4DD
:10116000BB0F11F460FF1BC06F5F7F4F8F4F9F4F0E
:1011700016C0882311F096E911C0772321F09EE86C
:10118000872F762F05C0662371F096E8862F70E0D2
:1011900060E02AF09A95660F771F881FDAF7880FAC
:1011A0009695879597F9089597F99F6780E870E07D
:1011B00060E008959FEF80EC089500240A941616CD
:1011C000170618060906089500240A941216130635
:1011D000140605060895092E0394000C11F48823C3
:1011E00052F0BB0F40F4BF2B11F460FF04C06F5FDF
:1011F0007F4F8F4F9F4F089557FD9058440F551FB5
:1012000059F05F3F71F04795880F97FB991F61F088
:101210009F3F79F087950895121613061406551FFF
:10122000F2CF4695F1DF08C0161617061806991F6B
:10123000F1CF86957105610508940895E894BB2760
:1012400066277727CB0197F9089597FB092E072684
:101250000AD077FD04D00CD006D000201AF4709587
:1012600061957F4F0895F6F7909581959F4F08956A
:10127000AA1BBB1B51E107C0AA1FBB1FA617B707BC
:1012800010F0A61BB70B881F991F5A95A9F78095D8
:101290009095BC01CD010895FB019F01E894423077
:1012A000C4F04532B4F44A3029F497FB1EF490950B
:1012B00081959F4F642F77270E943809805D8A337C
:1012C0000CF0895D8193CB010097A1F716F45DE2E4
:1012D00051931082C9010C94DC09FA01CF93FF935A
:1012E000EF93223044F1253234F5C22FE894CA300E
:1012F00049F497FB3EF490958095709561957F4FEA
:101300008F4F9F4F2C2F332744275527FF93EF9361
:101310000E94EC09EF91FF91605D6A330CF0695D0A
:101320006193B901CA01605070408040904051F70C
:1013300016F4CDE2C19310828F919F91CF910C94BE
:10134000DC09FA01CF93FF93EF932230CCF02532E2
:10135000BCF4C22F2C2F332744275527FF93EF933C
:101360000E94EC09EF91FF91605D6A330CF0695DBA
:101370006193B901CA01605070408040904051F7BC
:1013800010828F919F91CF910C94DC09FB019F01FA
:10139000423074F0453264F4642F77270E94380994
:1013A000805D8A330CF0895D8193CB010097A1F7B2
:1013B0001082C9010C94DC09DC01FC01672F7191DA
:1013C0007723E1F7329704C07C916D93708362912B
:1013D000AE17BF07C8F30895A1E21A2EAA1BBB1BC4
:1013E000FD010DC0AA1FBB1FEE1FFF1FA217B307F1
:1013F000E407F50720F0A21BB30BE40BF50B661F07
:10140000771F881F991F1A9469F7609570958095CA
:1014100090959B01AC01BD01CF010895F894FFCFD9
:0C1420000C000B0000E1000000000800C0
:00000001FF
